:020000040800F2
:10000000C03101205904000861040008630400089D
:100010006504000867040008690400080000000087
:10002000000000000000000000000000290300089C
:100030006D04000800000000E1030008450400080A
:1000400073040008730400087304000873040008B4
:1000500073040008730400087304000873040008A4
:100060007304000873040008730400087304000894
:100070007304000873040008730400087304000884
:10008000751300088D1300087304000800000000B9
:1000900000000000000000000000000073040008E1
:1000A0007304000873040008730400087304000854
:1000B000730400088926000873040008730400080C
:1000C0007304000873040008730400087304000834
:1000D00073040008BD280008E129000800000000A2
:1000E0007304000873040008730400080000000093
:1000F0000000000000000000000000007304000881
:100100000000000073040008730400087304000872
:1001100000000000000000000000000000000000DF
:1001200073040008A5130008BD1300087304000839
:100130007304000800000000000000000000000040
:100140000000000000000000000000007304000830
:1001500073040008D5130008ED130008452B0008B0
:100160007304000873040008000000000000000091
:10017000000000000000000000000000000000007F
:1001800000000000730400080000000000000000F0
:100190007304000800F002F800F070F80AA090E87C
:1001A000000C82448344AAF10107DA4501D100F032
:1001B00065F8AFF2090EBAE80F0013F0010F18BF8F
:1001C000FB1A43F00103184788CD0000A8CD0000BA
:1001D0000A444FF0000C10F8013B13F0070408BF6D
:1001E00010F8014B1D1108BF10F8015B641E05D00B
:1001F00010F8016B641E01F8016BF9D113F0080FC0
:100200001EBF10F8014BAD1C0C1B09D16D1E58BF51
:1002100001F801CBFAD505E014F8016B01F8016B88
:100220006D1EF9D59142D6D37047000000230024FB
:1002300000250026103A28BF78C1FBD8520728BFF6
:1002400030C148BF0B607047642900F01F827829D5
:1002500000F05882732900F00486002070471FB513
:100260000BF0F8F901F03FF80400002000210BF03A
:10027000DBF9401C60601FBD10B510BD01F004F833
:100280001146FFF7ECFF0FB400F00CF80FBC07F0BD
:10029000ADFC00F033FC03B4FFF7EEFF03BC00F04D
:1002A000EDFF000004B007F095FD0448002107F0C1
:1002B00089FE07F0A1FD00F021FC0000E40300200E
:1002C00080F309887047EFF309807047684680F330
:1002D000098804480078C00714BF0220032080F377
:1002E0001488704750CC0008DFF818C0EFF305837E
:1002F0001B0618BF6047EFF31483DB0708BF604796
:1003000000DF704729820008DFF818C0EFF305838B
:100310001B0618BF6047EFF31483DB0708BF604775
:1003200000DF7047A5840008EFF30980816911F8A8
:10033000021CE1BB90E80F1010B5E047BDE810408B
:10034000EFF3098C8CE80700214B93E806009142FB
:1003500008BF704741B91EF0100F16D11D4908683B
:1003600020F00100086010E01EF0100F06BF2CED19
:10037000108A0120002081F825002CE9F00FC1F837
:1003800028C00CB408F084FC0CBC1A60D2F828C059
:10039000BCE8F00F92F8250000280EBF6FF0020EA7
:1003A0006FF0120EBCEC108A8CF30988704710B500
:1003B000094A1268914209D8084C54F8214090E843
:1003C0000F10A047EFF3098C8CE80F0010BD000060
:1003D0000C04002034EF00E07013000870130008D4
:1003E00010B508F019FBBDE81040154B93E8060066
:1003F000914208BF7047EFF3098C1EF0100F06BF43
:100400002CED108A0120002081F825002CE9F00F46
:10041000C1F828C00CB408F03BFC0CBC1A60D2F840
:1004200028C0BCE8F00F92F8250000280EBF6FF03E
:10043000020E6FF0120EBCEC108A8CF30988704724
:100440000C04002010B508F0EBFCCCE710B507F069
:1004500041FE08F0E5FCC6E7094880470948004727
:10046000FEE7FEE7FEE7FEE7FEE7FEE7FEE7FEE764
:10047000FEE7FEE704480549054A064B70470000C1
:100480003526000895010008C02B0120C03101204D
:10049000C02D0120C02D0120004870475C2B012099
:1004A00053EA020C00F069802DE9F04B4FF0000692
:1004B000002B1FBFB3FA83F503FA05F424FA05F6FF
:1004C0005E4012BF1643B2FA82F502FA05F4C5F196
:1004D00020051EBF22FA05FC44EA0C04203556EA2A
:1004E000044C4FEA144418BF641C4FF000084FF04E
:1004F0000009904271EB030C39D3002919BFB1FAFE
:1005000081F701FA07F6B0FA80F700FA07F6C7F1AB
:1005100020071EBF20FA07FC46EA0C062037B6FB70
:10052000F4FCA7EB0507103F07F01F0BCBF12006EB
:100530000CFA0BFB2CFA06F644BFB3460026202F1C
:10054000A4BF5E464FF0000B5BEA060C08BF4FF0FD
:10055000010B19EB0B09ABFB027C48EB0608C01B37
:1005600006FB02CC0BFB03CC71EB0C01C1E70B4685
:10057000024641464846BDE8F08B13B54FF00000F7
:100580004FF00001AFF30080BDE81C407047000051
:100590000FB41CB5074B06AA7B446946009005982A
:1005A00000F02DFC0020694600F03CFC1CBC5DF80E
:1005B00014FB0000890800000FB41CB50C0007AA4A
:1005C000009001D02044401E074B7B4469460190B7
:1005D000069800F014FC002C03D06946002000F0BF
:1005E00021FC1CBC5DF814FB6108000070B50446DA
:1005F00085690068C10601D5302600E02026C007C5
:1006000007D070BDD4E9012130469047206A401CD4
:1006100020626D1EF6D570BD70B504468569007800
:10062000C00707D170BDD4E9012120209047206A7E
:10063000401C20626D1EF6D570BD70B50C46054697
:10064000012A05D02878800600D5EA69002302E057
:10065000012305E05B1C934202D2E05C0028F9D143
:10066000A869E618C01AA861286A184428622846B2
:10067000FFF7BCFF04E0D5E9012114F8010B904716
:10068000B442F8D32846FFF7C7FF70BD2DE9F0410B
:100690000646002410687529314616A510D0AFF320
:1006A0000080002802DA404213A507E031688A077B
:1006B00001D512A502E0490704D511A5012401E0E6
:1006C000AFF3008000210A2206F1240709E0B0FB05
:1006D000F2FCB0FBF2F302FB1C00303078541846F9
:1006E000491C0028F3D123462A463046BDE8F04194
:1006F00000F027BB000000002D0000002B000000D0
:100700002000000070B504460D4621461068AFF386
:1007100000802188090502D50F4A7A4402E00E4A7A
:100720007A440E32002104F1240305E000F00F06A4
:100730000009965D5E54491C0028F7D120780023FB
:10074000000704D5702D02D009B1022311322046D2
:10075000BDE8704000F0F5BA92C700002DE9F05FE7
:10076000894604464FF0000ADFF824B1FB44C0F884
:1007700020A02046E168884700287DD0252806D0A3
:10078000D4E901219047206A401C2062F1E700254E
:100790005F462046E16888472028064607DB312E61
:1007A00005D2B81910F8200C08B10543F1E7A807E5
:1007B00001D525F00405C4F81CA00027C4F818A032
:1007C0002A2E09D0304605F08DFE38B304EB870899
:1007D000303EC8F8186019E059F8041B204604EBB5
:1007E00087029161E1688847012F064618D1E069C8
:1007F000002820DA25F020051DE0D8F8180000EBCD
:10080000800006EB40003038C8F818002046E16848
:100810008847064605F066FE0028EED1012F0AD073
:100820002E2E08D12046E16888477F1C0646022FFD
:1008300045F02005C4DBA069002803DA404245F0FA
:100840000105A061E80701D025F01005A6B1A6F1C9
:100850004100192802D8203645F400654A46314641
:10086000204625604D46FFF7EFFC60B1012807D018
:10087000ED1D25F0070000E007E000F1080978E72A
:1008800005F1040975E730467AE7206ABDE8F09F74
:1008900068C700000FB400B58DB010A90990009191
:1008A0000B904FF0FF300A9000200C9006487844DF
:1008B0000690064878446A4607900F9909A800F008
:1008C000E9FA0DB05DF814FB030600001B060000FA
:1008D0002DE9FF5F1D464FF0FF3B91464FF00008AA
:1008E0005F46D5E90146A96901987F1C8847296AB6
:1008F000824688470028F6D1BAF1FF3F0CD0002E7F
:1009000024F4C06419DD600614D5BAF12B0F09D0A8
:10091000BAF12D0F0ED103E0584604B0BDE8F09FA8
:1009200044F48064A96901987F1C8847761E82463A
:10093000002E02DDBAF1300F03D0B9F1000F26D03E
:1009400032E0A969761E01987F1C44F40074884740
:10095000002E824605DDBAF1780F06D0BAF1580FA5
:1009600003D0B9F1000F10D01EE0B9F1000F02D092
:10097000B9F1100F18D1A969761E01987F1C24F4D3
:10098000007488478246102002E0082000E00A2018
:10099000814609E0A96908FB0908761E01987F1CB9
:1009A00044F4007488478246002E05DD49465046CF
:1009B00000F05BFA0028EDDAE96901988847A005A4
:1009C00002D46FF00100A8E7E00725D1600613D537
:1009D000600502D5C8F1000000E0404629680A1D04
:1009E0002A600968220501D5087015E0220701D5A3
:1009F000088011E008600FE02868011D2960006888
:100A0000210502D580F8008006E0210702D5A0F874
:100A1000008001E0C0F8008038467EE72DE9FF5FE6
:100A20004FF000089946144646469169D2E901A75D
:100A3000DDF838B001988847054659EA0B0005D023
:100A400009E0A1690198761C88470546216A284675
:100A500088470028F5D1681C03D05FEACA7005D02A
:100A600015E04FF0FF3004B0BDE8F09F2068011D95
:100A70002160D0F800800AE05FEACA7001D108F86E
:100A8000015BA169761C01987F1E88470546002FEF
:100A90001ADD681C18D0B9F1000F0DD0E81705EB6E
:100AA000D060421120F01F0059F822102A1A0120AC
:100AB00090400142E0D107E0BBF1000FDCD12846B5
:100AC000216A88470028D7D0E16901988847BBF19F
:100AD000000F07D1002E05DD5FEACA7002D10021A8
:100AE00088F80010A068B84203DDBBF1000F03D006
:100AF00017B16FF00100B6E73046B4E710B5044611
:100B0000AFF300802046BDE81040FFF7C4BB40EAC9
:100B1000010310B59B070FD1042A0DD310C808C9D3
:100B2000121F9C42F8D020BA19BA884201D901207C
:100B300010BD4FF0FF3010BD1AB1D30703D0521CC7
:100B400007E0002010BD10F8013B11F8014B1B1B02
:100B500007D110F8013B11F8014B1B1B01D1921E6C
:100B6000F1D1184610BD10B5431C02E010F8011B6E
:100B700071B18107FAD14FF0013202C88C1A8C434F
:100B800014EAC211F9D0C01A0A0603D0C01E10BD63
:100B9000C01A10BD0A0401D0801E10BD0902FCD08D
:100BA000401E10BD421E12F8013F002BFBD111F870
:100BB000013B002B02F8013BF9D17047032A40F2B8
:100BC000308010F0030C00F0158011F8013BBCF1EF
:100BD000020F624498BF11F801CB00F8013B38BF07
:100BE00011F8013BA2F1040298BF00F801CB38BF15
:100BF00000F8013B11F0030300F02580083AC0F033
:100C0000088051F8043B083A51F804CBA0E80810DA
:100C1000F5E7121D5CBF51F8043B40F8043BAFF30D
:100C20000080D20724BF11F8013B11F801CB48BF67
:100C300011F8012B24BF00F8013B00F801CB48BF9D
:100C400000F8012B704710B5203AC0F00B80B1E8D6
:100C50001850203AA0E81850B1E81850A0E81850F1
:100C6000BFF4F5AF5FEA027C24BFB1E81850A0E8FA
:100C7000185044BF18C918C0BDE810405FEA827C14
:100C800024BF51F8043B40F8043B08BF7047D2072B
:100C900028BF31F8023B48BF11F8012B28BF20F8CC
:100CA000023B48BF00F8012B70474FF000020429B7
:100CB000C0F0128010F0030C00F01B80CCF1040C8B
:100CC000BCF1020F18BF00F8012BA8BF20F8022BBF
:100CD000A1EB0C0100F00DB85FEAC17C24BF00F865
:100CE000012B00F8012B48BF00F8012B70474FF093
:100CF000000200B5134694469646203922BFA0E86C
:100D00000C50A0E80C50B1F12001BFF4F7AF090777
:100D100028BFA0E80C5048BF0CC05DF804EB890068
:100D200028BF40F8042B08BF704748BF20F8022BAB
:100D300011F0804F18BF00F8012B704770477047C3
:100D400070472DE9F0470D4699469246044600F15A
:100D500024080168880604D5E06921F010012160AB
:100D600000E00120A84201DD471B00E00027A16947
:100D70007A1902EB0900081AA0612078C00602D493
:100D80002046FFF733FC002608E0D4E901211AF8D9
:100D900006009047206A401C761C20624E45F4DB1A
:100DA0002078C0060AD52046FFF720FC06E0D4E9EB
:100DB000012130209047206A401C2062381EA7F194
:100DC0000107F4DC07E0D4E9012118F80500904799
:100DD000206A401C2062281EA5F10105F3DC204694
:100DE000FFF71AFC2078000602D50220BDE8F08744
:100DF0000120FBE701694A1C02610878704700B5D1
:100E00008FB0CDE901310021059105497944CDE943
:100E1000031011466846FFF7A1FC0FB000BD0000AB
:100E2000E5FFFFFF0A6802F8010B0A607047D1E98D
:100E300000239A4202D2531C0B601070704710B509
:100E4000436913B1AFF3008001E0FFF7F6FB012027
:100E500010BD127800F124010A7000224A700122AC
:100E6000EDE711684FF0FF32E9E73A2800D2303859
:100E700020F02002412A01D3A2F13700884201D399
:100E80004FF0FF3070470000026811441378016092
:100E900018467047D1600549794451610449794445
:100EA000116200211161114600F02EB8EDFFFFFF25
:100EB00053000000426842B1016811F8013B23B1C0
:100EC000521EC0E90012184670470121C160881EF9
:100ED000704742685AB1C368016843B983688B425E
:100EE00005D0491E521CC0E90012002070474FF087
:100EF000FF30704710B5044600F0ECF90068005D63
:100F000000F0010010BD00002DE9F34F4FF0000A82
:100F10000C4656468DB001200C9001F10C000B9050
:100F200062690B9801219047051E2DD0252D2CD0EC
:100F3000216A8847C0B162690B9801219047216AF4
:100F400088470028F7D16269411E0B98904700E05E
:100F5000761CA1690D988847216A88470028F7D137
:100F6000E1690D988847DBE7A1690D988847A84299
:100F7000074601D1761CD3E7E1690D9888477F1CAD
:100F800002D1BAF1000F6FD06BE162690B980027B4
:100F90003D46394690472A2804D162690B980121C1
:100FA00090470125DFF8D08262690B9801219047B4
:100FB000A0F130010A290AD24745E5DC07EB870199
:100FC00000EB4107303FDFD445F01005ECE7E906C0
:100FD00001D46FF000476C280AD04C2814D0682840
:100FE00015D06A280DD074281CD07A281AD01DE09C
:100FF00062690B98012190476C2802D045F00405E6
:1010000014E045F002050DE045F020050AE06269B4
:101010000B9801219047682802D045F0080505E0AB
:1010200045F4006562690B9801219047C4E90157B6
:1010300065283DD019DC58287AD00CDC452837D0FB
:1010400004DC252826D041289ED131E046282FD027
:10105000472899D12CE05B2877D0612828D06328D5
:101060007CD0642823D15AE0F6E06F2848D008DC11
:1010700066281DD067281BD0692821D06E2816D17C
:1010800027E0702845D0732868D0752847D0782885
:101090000DD14DE0A1690D988847252805463FF4FC
:1010A00069AFE1690D9888476D1C3FF46AAFD8E0DD
:1010B0000D9923466A466FF00100AFF30080C5E04A
:1010C00045F0400023464FF000026060A80736D488
:1010D0003EE0E8077FF447AF2068011D216000680B
:1010E000290501D506701BE7290701D5068017E7FA
:1010F000A90703D5F117C0E9006111E706600FE702
:1011000045F0400023464FF008026060A80716D45F
:101110001EE040F60E0125EA0100606016E045F091
:10112000400023464FF00A026060A80707D40FE092
:1011300045F040006060A80708D5234610220D99AD
:101140006FF00100AFF3008080E007E0102223463B
:101150000D996FF00100FFF7BBFB77E04FF000093E
:1011600063284F46C8464B46CB4602D05B2806D084
:1011700038E0E80601D40120A060012732E062696E
:10118000D4F80CB00B98012190475E2807D14FF09E
:10119000010949466269D4F80CB00B98904721695F
:1011A00039B900210A4603AB43F82120491C08291C
:1011B000FADBD8B3216949B308F1010862690B98D9
:1011C000012190475D28F4D1B9F1000F09D000202A
:1011D00003A951F82020D24341F82020401C0828C0
:1011E000F7DB03AB2069002820794FEA40701ED05E
:1011F0005B462246CDF80080CDE901970D99002885
:101200006FF0010020DAAFF300801FE0C11703AADE
:1012100000EBD1614B1121F01F0102EB8302411A57
:1012200013680120884003431360C7E719E00D9954
:10123000224600286FF00100009702DAAFF3008029
:1012400004E0FFF7EBFB01E0AFF3008000280ADACF
:10125000401C06D10C9820B14FF0FF300FB0BDE814
:10126000F08F5046FAE7E90701D10AF1010A064476
:1012700000200C9054E60000CCCCCC0C0149182086
:10128000ABBEFEE7260002007546FFF705F9AE4645
:1012900005006946534620F00700854618B020B582
:1012A000FFF7E8F8BDE820404FF000064FF00007D8
:1012B0004FF000084FF0000B21F00701AC46ACE8FE
:1012C000C009ACE8C009ACE8C009ACE8C0098D466B
:1012D0007047000010B500F006F8001D10BD00BFFB
:1012E00049A30000704710B5FFF7D6F8203010BDB5
:1012F0004FF0013C50F8042B51F8043B9A4221D1A5
:10130000A2EB0C03934313EACC1317D150F8042B30
:1013100051F8043B9A4215D1A2EB0C03934313EA14
:10132000CC130BD150F8042B51F8043B9A4209D14D
:10133000A2EB0C03934313EACC13DBD04FF0000075
:10134000704700BFD01A01BAB1FA81F101F018015B
:1013500022FA01F0CB40C1F12001DBB2C0B2C01AC9
:101360002CFA01F3D11A914311EAC311E6D1704767
:101370000000000010B5102000F0AFFEBDE81040E6
:10138000014800F0E1BA00006029012010B51120E9
:1013900000F0A3FEBDE81040014800F0D5BA0000FF
:1013A0000829012010B5392000F097FEBDE8104053
:1013B000014800F0C9BA0000102A012010B53A20F7
:1013C00000F08BFEBDE81040014800F0BDBA0000FF
:1013D000B028012010B5452000F07FFEBDE8104088
:1013E000014800F0B1BA0000B829012010B546202C
:1013F00000F073FEBDE81040014800F0A5BA0000FF
:101400005828012001681823CAB2103AB2FBF3F23F
:10141000054B6FF30901032A9B5C436500D9091D45
:10142000016508467047000098CE000830B5046892
:10143000256825F480252560046863608368402B57
:10144000036803D099600068C26030BD9A6000688C
:10145000C16030BD2DE9F041434D00244FF40041FF
:10146000284600F095FD00B901244FF480713F48F3
:1014700000F08EFD08B944F002044021284600F037
:1014800087FD08B944F004042021284600F080FDBF
:1014900008B944F00804364E347008F08FF8354926
:1014A0000870F4793578AC4204D0307AC82803D279
:1014B000401C3072BDE8F0814FF0000886F80880CB
:1014C0006C40F57180212C48FFF7EFFB2B462BA2D7
:1014D00080212948FFF770F82748FFF744FB2C4D7F
:1014E000014625486A6990470A2006F067FC0222F7
:1014F0001421032005F0C8FB08F00CFBE0071CD00A
:10150000F079244FC00702D00120387001E087F83D
:10151000008080211848FFF7C8FB3B781EA280217D
:101520001548FFF749F81448FFF71DFB01466A69A3
:10153000114890470A2006F041FC14F00C0FB9D076
:10154000F0791C49C0F381003B2228B1012805D065
:10155000022805D00328ADD10A70ABE7392000E09E
:101560003A200870A6E70000000402400000024094
:1015700080030020120000202C04002044636F64CC
:1015800065206368673A20253032582E0A00000033
:10159000F0CD0008C10200207769666920636667A4
:1015A000206D6574686F64206368673A25642E0A4D
:1015B0000000000014000020224A08B52249904291
:1015C00007D10A6842F001020A600A6802F00102CB
:1015D00000921E4A904207D10A6842F002020A6055
:1015E0000A6802F002020092194A904207D10A6882
:1015F00042F004020A600A6802F004020092154AEE
:10160000904207D10A6842F008020A600A6802F0B4
:1016100008020092104A904207D10A6842F0100274
:101620000A600A6802F0100200920C4A904207D148
:10163000086840F080000860086800F080000090B2
:1016400008BD0000000002403038024000040240A3
:1016500000080240000C024000100240001C024042
:10166000002229B101291FD0022920D04FF4407255
:1016700010490B6823F440730B600B6813430B6035
:101680000A6822F0F8020A600A68F82393FAA3F3C2
:10169000B3FA83F3984040F0020002430A600868FE
:1016A00040F48030086070474FF48072E0E74FF4F8
:1016B0000072DDE7103C02401348016889050FD530
:1016C000016821F400710160016841F4006101606A
:1016D000016821F400610160016841F4007101605A
:1016E000016849050FD5016821F480610160016836
:1016F00041F480510160016821F48051016001686A
:1017000041F4806101607047003C02400748016875
:1017100021F44071016001680160016841F0040139
:101720000160016841F4803101607047103C024063
:10173000064A136823F44073136013681360136838
:1017400043F001031360017070470000103C024039
:10175000084910B50C6824F440740C600C6844F41B
:1017600040740C600C6844F001040C60026043603B
:1017700010BD0000103C0240074A136823F4407378
:101780001360136843F480731360136843F001031C
:101790001360018070470000103C0240074A136844
:1017A00023F440731360136843F4007313601368E9
:1017B00043F001031360016070470000103C0240D9
:1017C0001F490868C043C2061E4805D4C26942F0DA
:1017D0001002C26110220A600A68D243920605D440
:1017E000C26942F00802C26120220A600A68D2433C
:1017F000520605D4C26942F00402C26140220A6066
:101800000A68D243120605D4C26942F00202C261DC
:1018100080220A600A68D243D20506D4C26942F027
:101820000102C2614FF480720A600A68D2439207D3
:1018300005D4C26942F02002C261022008607047EC
:101840000C3C0240D82A012070B513490446002000
:10185000C86100F0A7FB0546104E09E0601C07D0E8
:1018600024B100F09FFB401BA04201D9032070BDB2
:101870003068C043C003F1D53068C00701D00120F3
:10188000306031684FF4F970884301D0002070BD9A
:10189000FFF796FF012070BDD82A01200C3C0240C2
:1018A0002DE9F04104460068016821F00101016062
:1018B00000F078FB054600264FF47A770FE000F041
:1018C00071FB401BB8420AD954F84C0F40F020007D
:1018D00044F81809032026706070BDE8F081206884
:1018E0000068C007EBD104F8346F0120607000205D
:1018F000F3E770B5040025D094F83500022821D014
:101900002068016821F00101016020680025056060
:1019100020684560206885602068C5602068056192
:101920002168212048612046FFF76CFD94F854207F
:101930003F2191408160E56484F8355084F834504B
:10194000002070BD012070BD2DE9F041056D0446F9
:10195000286894F85420082101FA02F210424FF04E
:1019600004074FF0000617D020680268520713D50D
:10197000026822F00402026094F854008140A960D9
:10198000E06C40F00100E06484F8357084F8346065
:10199000A16C09B120468847286894F85430524A0F
:1019A00002FA03F1084218D020684169090614D5EB
:1019B000416921F08001416194F8540002FA00F17C
:1019C000A960E06C40F00200E06484F8357084F8AF
:1019D0003460A16C09B1204688472868424A94F8CF
:1019E0005430D21C02FA03F1084218D02068016872
:1019F000890714D5016821F00201016094F85400B0
:101A000002FA00F1A960E06C40F00400E06484F8A0
:101A1000357084F83460A16C09B120468847286885
:101A200094F85430102202FA03F108421AD02068C8
:101A300003681B0716D503685F034FF0310327D5F2
:101A4000A96020680168090302D484F8353005E0F4
:101A50000068000302D5412084F83500216C09B1EB
:101A600020468847286894F85430202202FA03F16F
:101A7000084236D020680368DB0632D503685B0372
:101A80001CD5A9602068016809030DD4616C0FE0C2
:101A90000168C90503D4016821F00801016094F8C8
:101AA00054008240AA60D0E70068000319D5E16BBA
:101AB000002916D02046BDE8F04108470168C90555
:101AC00003D4016821F01001016094F854008240B1
:101AD000AA60E06CE064112084F8350084F834607A
:101AE000E5E7BDE8F08100000100800070B504006A
:101AF0001AD00220636A84F8350021680A68184801
:101B00000240D4E901052843D4E90356354328436C
:101B100065692843A5692843E5692843256A284360
:101B20001043042B02D005E0012070BDD4E90B2343
:101B30001A431043086022685069616A20F0070068
:101B40000843042901D1A16A084350612046FFF7E8
:101B500059FC0020E064012084F83500002070BDAD
:101B60003F8010F070B5044690F8340001281ED074
:101B7000012084F83400022084F8350020680568CC
:101B800025F0010505602046FFF750FC206801683C
:101B900041F01E0101602068416941F0800141610E
:101BA0002068016841F001010160002070BD022041
:101BB00070BD00002DE9F047044622480E46017E24
:101BC00001290AD00121804601764CF2503948465D
:101BD000FFF73AFE020003D02FE00220BDE8F087B5
:101BE0004FF0FF3030602068174F012801D0A56802
:101BF0001CE0207C6168FFF789FD4846FFF724FE62
:101C00000246386820F00400386014E0217C284641
:101C1000FFF726FD4846FFF717FE0200386820F060
:101C2000FA00386001D0356005E06D1CD4E902107F
:101C30000844A842EAD8FFF73FFD002188F81810B1
:101C40001046CBE7D82A0120103C02400348016827
:101C500041F000410160002070470000103C02404C
:101C60002DE9F0471B4E05461446307E1F46894637
:101C7000012808D0012030764CF250384046FFF75A
:101C8000E3FD18B114E00220BDE8F0879DB1012DFD
:101C900016D0022D19D022463B464846FFF758FD84
:101CA0004046FFF7D1FD0C490A6822F001020A60A4
:101CB00000213176E8E7E1B24846FFF739FDEFE76A
:101CC000A1B24846FFF758FDEAE721464846FFF72C
:101CD00065FDE5E7D82A0120103C0240064800686F
:101CE000002807DA044805490C38016004490160FE
:101CF0000020704701207047103C024023016745D7
:101D0000AB89EFCD2DE9F04FDFF8D4B000224FF0D2
:101D1000010A4FF00F080AFA02F501EA0503AB4287
:101D200059D1066857000324BC40A6430660D60874
:101D300000EB8606D6F820C057074FEAD76908FAA5
:101D400009F72CEA070CC6F820C08668A64386600F
:101D50004668AE434660C568A543C56022F00305EA
:101D60005D44D5F808489607370F08FA07F606EAE3
:101D7000040C1C4CA04201D1002414E01A4CA042D7
:101D800001D101240FE0194CA04201D102240AE044
:101D9000174CA04201D1032405E0164CA04201D10A
:101DA000042400E00524BC40644514D1D5F808485B
:101DB000B443C5F80848104C25689D432560241D90
:101DC00025689D432560241D25689D432560241DAD
:101DD00025689D432560521C102A9CD3BDE8F08FD6
:101DE00000300140000002400004024000080240B0
:101DF000000C024000100240003C01402DE9F84F69
:101E0000DFF86C91002209F1040A0AF1040B4FF08B
:101E10000F080BF1040E01260B6896403340B342C5
:101E200071D14C68022C01D0122C11D1D40800EBD6
:101E300084073D6A5407E40E08FA04FC25EA0C0501
:101E4000D1F810C00CFA04FC4CEA050CC7F820C00D
:101E500007685400032591F804C0A5400CF0030C5A
:101E6000AF430CFA04FC4CEA070CC0F800C04F6802
:101E7000012F05D0022F03D0112F01D0122F11D125
:101E80008768D1F80CC0AF430CFA04FC4CEA070C8D
:101E9000C0F808C04768B7430E79C6F300169640ED
:101EA0003E434660C668AE438D68A5403543C56075
:101EB0004C68E40056D52F4C256845F480452560D4
:101EC000246822F0030504F4804400942A4C2E195F
:101ED000D6F808789407250F08FA05F4A743274C8D
:101EE000A04201D1002415E0254CA04201D10124DB
:101EF00010E0244CA04201D102240BE0224CA0426D
:101F000002D1032406E02DE0204CA04201D104249C
:101F100000E00524AC403C43C6F80848D9F800402E
:101F20004D464E689C43F60300D51C432C60DAF8FE
:101F3000004055464E689C43B60300D51C432C60B8
:101F4000DBF800405D464E689C43F60200D51C431A
:101F50002C60DEF8004075464E689C43B60200D502
:101F60001C432C60521C102AFFF455AFBDE8F88FBB
:101F7000003C014044380240003001400000024073
:101F80000004024000080240000C02400010024021
:101F90000069084000D0012070470AB18161704794
:101FA0000904FBE70148006870470000FC030020BB
:101FB00010B5040002D0607B10B106E0012010BD16
:101FC00000202073204600F018F80220607321687A
:101FD00045F25550086020684168626821F00701A9
:101FE0001143416020688168A2686FF30B011143BF
:101FF000816001206073002010BD70472DE9F04121
:102000000446007B01280AD0012626730220607353
:10201000FFF7C8FF054600274FF47A780BE002204F
:10202000BDE8F081FFF7BEFF401B404503D9032008
:1020300060732773F4E72068C068C0438007F1D558
:1020400021684AF6AA200860667327730020E7E734
:10205000017B01290FD001210222427303684CF653
:10206000CC421A6003684AF6AA221A604173002122
:102070000173084670470220704700000B4810B5F6
:10208000016841F400710160016841F48061016000
:10209000016841F480710160032000F05FF80F20B7
:1020A00000F006F800F015F8002010BD003C0240DA
:1020B00010B5044600F076F84FF47A71B0FBF1F0F9
:1020C00000F0EEF800222146501E00F027F8002014
:1020D00010BD08B50020009008BD00F01F020121CE
:1020E00091404009800000F1E020C0F88012704764
:1020F00000F01F02012191404009800000F1E02022
:10210000C0F88011704700F01F0201219140400982
:10211000800000F1E020C0F800117047F0B40E4BD1
:102120001B68C3F30223C3F10704042C00D9042461
:102130001D1D072D01D2002300E0DB1E012606FA3B
:1021400004F56D1E0D409D409E40761E164045EAEA
:102150000601F0BC00F0CFB90CED00E0064A00F03B
:10216000070110684FF6FF03184040EA01200349B9
:1021700008431060704700000CED00E00000FA0515
:10218000BFF34F8F05480168054A01F4E061114330
:102190000160BFF34F8F00BFFDE700000CED00E0D2
:1021A0000400FA0510B500F043F808490968F02268
:1021B00092FAA2F201F0F001B2FA82F2D140044A9E
:1021C000515CC8400349086010BD00000838024057
:1021D000A0CE00080004002010B5FFF7E3FF074978
:1021E00009684FF4E05292FAA2F201F4E051B2FA17
:1021F00082F2D140024A515CC84010BD083802400A
:10220000A0CE000810B5FFF7CDFF074909684FF4CD
:10221000604292FAA2F201F46041B2FA82F2D14035
:10222000024A515CC84010BD08380240A0CE0008E8
:1022300030B51948006810F00C01184812D044104D
:1022400004290ED008290DD1134A121F11681368F2
:1022500001F03F015D0247F6C07304D5B4FBF1F015
:1022600003E0204630BDB0FBF1F01168194093FA4D
:10227000A3F3B3FA83F3D940484311684FF44032D3
:1022800092FAA2F201F44031B2FA82F2D140491C32
:102290004900B0FBF1F030BD083802400024F400E2
:1022A00010B5401EB0F1807F01D3012010BD4FF06A
:1022B000E02460610F21601700F01DF90020A0618B
:1022C00007202061002010BD7047704710B5040042
:1022D00003D094F8390010B107E0012010BD0020B0
:1022E00084F83800204600F00DF8022084F8390008
:1022F000211D206800F032FA012084F83900002006
:1023000010BD000008B500680B49884212D10B4887
:10231000016841F0020101600068032200F0020040
:10232000009001211D20FFF7F9FEBDE808401D20A7
:10233000FFF7E9BE08BD000000040040403802403D
:102340000168CA6842F00102CA600068016841F091
:102350000101016000207047704770B504460068B5
:1023600001694FF00005C943890715D4C168C94305
:10237000890711D4E91E0161012020762068806957
:102380008007204602D0FFF7E7FF04E000F098F84E
:10239000204600F096F8257620680169C943490770
:1023A00017D4C168C943490713D46FF00401016110
:1023B000022020762068806910F4407F204602D0F9
:1023C000FFF7CAFF04E000F07BF8204600F079F840
:1023D000257620680169C943090716D4C168C94335
:1023E000090712D46FF008010161042020762068EB
:1023F000C0698007204602D0FFF7AEFF04E000F07E
:102400005FF8204600F05DF8257620680169C94331
:10241000C90617D4C168C943C90613D46FF01001A7
:102420000161082020762068C06910F4407F2046B2
:1024300002D0FFF791FF04E000F042F8204600F0E0
:1024400040F8257620680169C943C90708D1C168E9
:10245000C943C90704D1891E0161204600F032F842
:1024600020680169C943090609D4C168C94309063E
:1024700005D46FF0800101612046FFF725FF206839
:102480000169C943490609D4C168C943490605D44D
:102490006FF040010161204600F016F820680169E4
:1024A000C94389060BD4C168C943890607D46FF0B4
:1024B000200101612046BDE87040FFF706BF70BDF6
:1024C0007047704700F0E6B8704700F01F02012126
:1024D00091404009800000F1E020C0F88012704770
:1024E00000F01F02012191404009800000F1E0202E
:1024F000C0F8001170470907090E002806DA00F03D
:102500000F0000F1E02080F8141D704700F1E0207A
:1025100080F80014704710B5002303E010C841F89C
:1025200023405B1C9342F9D310BD00002DE9F04716
:1025300086B04FF0000916460F460546CDF81490B8
:10254000B0F1006F60D3A8075ED1FFF7C7FB05EBC2
:1025500086082F4800262C464CF2503A85423CD340
:102560003DE02068401C34D02A48CDF800908442D9
:1025700001D2002022E0284920468C4201D20120CD
:102580001CE026498C4201D2022017E024498C42EB
:1025900001D2032012E023498C4201D204200DE035
:1025A00021498C4201D2052008E020498C4201D209
:1025B000062003E01E49884200D207200290012035
:1025C00003900220049005A96846FFF7F3FA30B99A
:1025D00000E0241D5046FFF737F94445C1D350466B
:1025E000FFF732F960B10DE00023294602203A6876
:1025F000FFF736FB30B92D1D3F1D0EB1761EF6B22A
:102600004545F1D3FFF722FB06B0BDE8F087000097
:1026100000100C08004000080080000800C00008FE
:10262000000001080000020800000408000006087D
:10263000000008081048016841F4700101600F486B
:10264000016841F0010101600C4A0021083211606B
:1026500002680B4B1A400260031D0A4A1A600268A6
:1026600022F48022026005480C30016002495806BD
:10267000803908607047000088ED00E000380240B3
:10268000FFFFF6FE103000240148FFF766BE000091
:10269000B8B6002070B52849884247D1274C00259C
:1026A0006088142802D2401C608016E0658007F024
:1026B00067FF07F097FF22490888420806D04FF0CD
:1026C000FF3202EB500262F34F000880607803286B
:1026D00002D2401C607000E06570A08844F6206162
:1026E000884202D2401CA08020E0A580207808B15A
:1026F000401E20701349087808B1401E0870124926
:102700000888401C08801149087820B1104A1278C6
:102710000AB1401E08700F48007838B10E49087899
:1027200010B1401E087001E008F078F907F0C0FF12
:10273000BDE8704007F066BFB8B60020680300200F
:1027400008030020FC02002008000020A003002055
:10275000D50300208203002081030020F0B5026829
:102760001B4C1C4D1C4E1D4F4FF0804CA04207D0FF
:10277000604505D0A84203D0B04201D0B84203D191
:1027800022F070034A681A43A04210D060450ED070
:10279000A8420CD0B0420AD0B84208D0104B9842A0
:1027A00005D0104B984202D00F4B984203D122F42F
:1027B0004073CA681A4302608A68C2620A68826209
:1027C000A04201D10969016301214161F0BD00000E
:1027D000000001400004004000080040000C0040E0
:1027E000004001400044014000480140014A00F01F
:1027F000E5B9000094CC000810B5174CE06880479C
:102800001648A16800688847216902208847A26AA3
:102810004FF4E131012090470121A26A1520904731
:102820000121A26A16209047642005F0C7FA802192
:102830000B48FEF73AFA0BA280210948FDF7BCFECF
:102840000748FEF790F90146626905489047BDE8E0
:1028500010400A2005F0B2BAF0CD000894B600206E
:102860002C04002069276D20757361727431206615
:102870006F7220646562756750310D0A00000000B8
:10288000014800687047000094CC0008014800F03F
:10289000DDBC000094CC0008014800F0ECBC000056
:1028A00094CC0008014800F0F1BC000094CC000872
:1028B000014800F00DBD000094CC0008014800F074
:1028C00012BD000094CC0008014900F001BE0000D8
:1028D00094CC0008014900F0EDBE000094CC000843
:1028E000014800F0BFBF000094CC0008014A00F08E
:1028F000F2BF000094CC0008014A01F070B800005B
:1029000094CC0008014901F0DEB8000094CC000826
:10291000014801F0FAB8000094CC0008014B01F026
:1029200011B9000094CC0008014801F032B9000050
:1029300094CC0008014A00F041B90000C8CC00085E
:1029400010B50E4CE06880470D48A1684068884784
:10295000216902208847A26A4FF4E13101209047A3
:102960000121A26A152090470121A26A16209047F2
:102970006269BDE810401C2102A0104728CE000863
:1029800094B6002069276D207573617274322066D9
:102990006F7220646174615472616E7350310D0AFC
:1029A000000000000148006870470000C8CC000823
:1029B000014800F04BBC0000C8CC0008014800F002
:1029C0005ABC0000C8CC0008014800F05FBC000001
:1029D000C8CC0008014800F07BBC0000C8CC00084F
:1029E000014800F080BC0000C8CC0008014900F09C
:1029F0006FBD0000C8CC0008014900F05BBE0000BC
:102A0000C8CC0008014800F02DBF0000C8CC000869
:102A1000014A00F060BF0000C8CC0008014A00F085
:102A2000DEBF0000C8CC0008014901F04CB800002E
:102A3000C8CC0008014801F068B80000C8CC000804
:102A4000014B01F07FB80000C8CC0008014801F03C
:102A5000A0B80000C8CC0008014A00F0AFB80000E0
:102A6000FCCC000870B51C4C86B0E06880471B4861
:102A7000A16800698847216902208847A26A4FF44B
:102A8000E131012090470121A26A152090470121E0
:102A9000A26A162090471248016841F004010160C3
:102AA0000068022100F00400059001204503CDE9F3
:102AB0000050CDE902010B4E69463046FFF79EF902
:102AC000002229463046FFF768FA62691C2106A0F9
:102AD000904706B070BD000060CE000894B600209C
:102AE000303802400008024069276D20757361721A
:102AF000743620666F7220646174615472616E7303
:102B000050320D0A000000000148006870470000C4
:102B1000FCCC0008014800F099BB0000FCCC000888
:102B2000014800F0A8BB0000FCCC0008014800F000
:102B3000ADBB0000FCCC0008014800F0C9BB0000A0
:102B4000FCCC0008014800F0CEBB0000FCCC000823
:102B5000014900F0BDBC0000FCCC0008014900F0B8
:102B6000A9BD0000FCCC0008014800F07BBE0000BD
:102B7000FCCC0008014A00F0AEBE0000FCCC00080E
:102B8000014A00F02CBF0000FCCC0008014900F015
:102B90009ABF0000FCCC0008014800F0B6BF00005E
:102BA000FCCC0008014B00F0CDBF0000FCCC0008BD
:102BB000014800F0EEBF0000FCCC00082DE9F04F0A
:102BC0001446D26A0E4689B0D17A4FF0FF39890790
:102BD0007ED54FF0000AC3B2A3F115015546D04689
:102BE0006FF00107D346062973D2DFE801F07CAD10
:102BF000031E374E206B76B190F82110002969D161
:102C0000012180F82110206B80F820106068C168D5
:102C100041F0810186E090F82000002834D06068FF
:102C2000C16821F08001C16013E06068C16821F0D3
:102C3000C001C160606A60B1206B90F8210040B1B2
:102C40006068416921F080014161606A0068FEF7B7
:102C500027FE216B584681F820B040E06068C168CB
:102C600021F02001C160A06A58B1E06A407940B10A
:102C70006068416921F040014161A06A0068FEF787
:102C80000FFEE16A81F805B055E16068C16821F086
:102C9000E001C160606A60B1206B90F8210040B132
:102CA0006068416921F080014161606A0068FEF757
:102CB000F7FDA06A58B1E06A407940B160684169A7
:102CC00021F040014161A06A0068FEF7E9FD02E0E1
:102CD00076E08CE0C3E0E16A584681F805B0216BEC
:102CE00081F8210027E1E068002869D0E6B1D168C9
:102CF00006290ED0808800900220CDE9010BCDF886
:102D00000CB0E068694680790490E0680068FFF7DD
:102D100075F8E06AC17A41F00801C1726068C16863
:102D200041F00801C16006E16068C16821F0080156
:102D3000C160E06AC17A21F00801C172E06AC0682E
:102D40000628A1D0E0684DE020690028CDD0B6B3B8
:102D5000D168062910D004290ED080880090022066
:102D6000CDE9010BCDF80CB020696946807904905B
:102D700020690068FFF742F8E06AC17A41F010016B
:102D8000C1726068416941F0010141616068016997
:102D900041F0400101616068C16841F01001C1600B
:102DA000E06A407908B1A06A20B96068C16841F062
:102DB0002001C1606068C16841F00401B2E700E031
:102DC000BEE06068C16821F00401C160E06AC17AB8
:102DD00021F01001C172E06AC068062806D00428FC
:102DE00004D0206981880068FEF78CFFA3E0517948
:102DF000A9BB216B8E4691F8211081BB6168D1F887
:102E00000CC05FEA0C7C04D5D1F800C05FEA4C6CC2
:102E100043D506EB061C0CEB4C0CCDF820C006EBA2
:102E2000061C0CEB461C6FF00607CDF81CC0152BDA
:102E30007ED2DFE803F08E0B0D3215191D8E8E8EBB
:102E40008E8E8E8E8E8E363958638200012115E06B
:102E50002178890721D54FF4106502210EE01CE08E
:102E60004FF00808042109E04FF00208052105E0B1
:102E70002178890611D54FF020080621059110F41C
:102E8000E0614FF480536BD06FF00802B1F5807FA2
:102E900079D0B1F5E06F75D15EE0384609B0BDE894
:102EA000F08FAEF81A6046E0D068052848D026B307
:102EB000486940F004004861A0688047E249B1FBDE
:102EC000F0F2012002FB00F1B14202D8401CFF28C1
:102ED000F8D9B0F5807F33D061688A6922F0FF02AB
:102EE00002438A6127E0D068062829D1FF2E27D81F
:102EF000886920F47F40304388611CE0D068062850
:102F00001ED1A0688047D049B1FBF0F3012003FB3C
:102F100000F1C8225143089AB1EB420F03D2079A3D
:102F2000B1EB420F02D8401C4028F0D3402800E00B
:102F30000FE005D0D0E70020B0E7D068062801D028
:102F40004846ABE7002EF6D0486940F010004861D3
:102F5000F1E76FF00300A1E710F4405F62D005E0F5
:102F600010F4405F02D045F020059A4610F440511D
:102F700013D099420BD0B1F5005F0BD06FF0090070
:102F80008CE700E04EE010F4405F4BD1EBE74AF4F1
:102F9000806101E04AF4C0618A4610F4404113D0D8
:102FA000B1F5804F08D0B1F5004F08D0B1F5404FD2
:102FB00008D06FF00A0071E745F4005504E045F4CD
:102FC000405501E045F4805510F4403116D04FF4DF
:102FD00080336FF00B02994216D05B0099421AD0F1
:102FE0004FF4403399421DD121680F061AD5C90507
:102FF00018D5994648F4E061884601E04FF0000991
:103000000599022910D025E0217809060AD59946AC
:1030100048F48071F0E72178090603D5994648F411
:103020000071E9E7104639E710F4802107D0B1F5C7
:10303000802F02D06FF00C0030E745F4806510F46B
:10304000002007D0B0F5002F02D06FF00D0025E76B
:1030500045F40075A068804700EBC00101EB00114A
:10306000B000B1FBF0F106906420B1FBF0F6A0686F
:10307000804700EBC00101EB00110698B1FBF0F7AF
:10308000A068804700EBC00101EB00110698B1FB7E
:10309000F0F16420B1FBF0F06FF01801484307EB4A
:1030A0008000322101EB00116420B1FBF0F7A06831
:1030B00066F31F1780470001B9B2B0FBF1F00009B9
:1030C000642148430899B0EB410F03D20799B0EB54
:1030D000410F02D86FF00700E0E66068C16821F494
:1030E0000051C16060688760E16A0598C860E16A64
:1030F000C1F81090E06AC168062902D0C07A0007C2
:1031000010D5E0686946808800900220CDE9010B67
:10311000CDF80CB0E06880790490E0680068FEF7B4
:103120006DFE04E0E06881880068FEF7EBFDE06A70
:10313000C168042915D0062913D0C07AC00610D55D
:1031400020696946808800900220CDE9010BCDF806
:103150000CB020698079049020690068FEF74EFE6B
:1031600004E0206981880068FEF7CCFD606948B101
:10317000E16AC968022940D006293ED081880068EA
:10318000FEF7C0FDA06988B1B9F5803F45D0B9F51B
:10319000403F42D0808800900120CDE9010BCDF85E
:1031A0000CB0A06969460068FEF728FEE06988B1A6
:1031B000B9F5003F3CD0B9F5403F39D08088CDE922
:1031C000000BCDF808B0CDF80CB0E0696946006896
:1031D000FEF714FE6168C1F80CA0606805616168C3
:1031E000C1F814806068C16841F40051C160E06AB0
:1031F000C17A41F00401C1729DE6808800900220EE
:10320000CDE9010BCDF80CB0606969468079049076
:1032100060690068FEF7F2FDB4E780880090022044
:10322000CDE9010BCDF80CB0A06980790490B8E726
:10323000808800900220CDE9010BCDF80CB0E06948
:1032400080790490C1E7000000CA9A3B10B5C16ABA
:10325000096911B1B1F5803F05D1C0698188006865
:10326000FEF796FE20B124F0010020F00E0010BD04
:1032700044F00100F9E7816A006B29B10968006830
:1032800009684968401A704700697047026B014637
:1032900092F8212012B141F0010005E04A6812685D
:1032A0009211521C62F30000C96A4A7962F341002C
:1032B0008A7962F38200CA7962F3C3000A7A62F300
:1032C00004104A7A897A62F3451061F386107047D8
:1032D000416A006B29B10968406809684968401A69
:1032E0007047406970472DE9F04144682368002128
:1032F000E5680A461D40AD060F464FF001064FD562
:10330000C56A95F805C0BCF1000F03D0ED68022D29
:1033100004D007E06168EE71202141E0056BED69A2
:10332000012D2CD0626892B2056BAC6804F1010CDF
:10333000C5F808C022704468E46865050BD4E4044D
:1033400009D5056B4FEA122EAC6804F1010CC5F8E3
:1033500008C084F800E0056B2C69641C2C61056BC7
:103360002D68AC421CD14468E56825F01005E56085
:10337000C46A6771C46AE468022C02D00FE0646812
:10338000D2E7056BEC69EF61012C04D0022C06D06A
:10339000032C05D101E0012102E0042100E002211B
:1033A0004568EC681C40E40602D56C6841F04001B9
:1033B000EC681C40240651D5046B94F820C0BCF185
:1033C000000F04D0EA6842F00102EA6046E0D4F857
:1033D00014C06568654519D0C26AD268022A02D154
:1033E000E269022A2FD0E268551CE5604468127831
:1033F000E4685FEA445C09D4E40407D5046B05F192
:10340000010CC4F80CC02C7842EA0422046B6569F4
:103410006D1C656144686260026B54685269944235
:103420001CD14268D46824F08004D4604268D46817
:1034300044F04004D460026B82F82170C26AD46800
:10344000022C02D008E0628BE0E7046BE469012CF7
:1034500004D1D27AD20601D441F001014268D46885
:103460001C40640605D5D46824F04004D46041F0C3
:1034700008011A0705D542685268C26A41F0200166
:10348000D6719A0705D542685268C26A41F48071C4
:103490005672DA0705D042685268C26A41F4007178
:1034A0009672DA0508D54268136823F480731360B6
:1034B000C26A41F080011672002907D0C06A026812
:1034C000002A03D0BDE8F04108461047BDE8F0816E
:1034D00038B50C46C96ACA7AD20701D0002038BD77
:1034E0000860E06A002524210571E06A4571E06A00
:1034F0008571E06AC571E06A0572E06A4572E06A4A
:103500008572E06AC560206B80F82150206BFDF762
:10351000EEFBE0680068FEF74FF820690068FEF7F0
:103520004BF8606910B10068FEF746F8A06910B169
:103530000068FEF741F8E06910B10068FEF73CF85A
:10354000A06A032158B3826800680260A06AC2685A
:1035500000684260A06A00688560A06A0068C56172
:10356000A06A026900680262A06A00684562A06AF7
:1035700000688162A06A0068C562A06A006805638D
:10358000A06A00688563A06A05C8C263A06A006873
:103590000564A06A00684564A06A00688564606A82
:1035A00060B3826800680260606AC2680068426056
:1035B000626A402012689060606A0068C561606A53
:1035C000026900680262606A00684562606A0068B9
:1035D0008162606A0068C562606A00680563606A4B
:1035E00000688563606A03C8C163606A0068056437
:1035F000606A00684564606A006885640D4A6068B6
:103600000D49904202D00D4A904207D1086840F41B
:1036100080000860086800F4800006E0086840F454
:1036200000100860086800F400100090E16A0120B2
:10363000C87253E7001001403038024000140140C6
:1036400070B51A4A174B184C194D111D984203D1E9
:103650000E6846F010060BE0A04204D1166846F44E
:103660000036166005E0A84203D10E6846F0200639
:103670000E6000BF00BF00BF00BF984203D10868C2
:1036800020F010000BE0A04204D1106820F40030BC
:10369000106070BDA842FCD1086820F020000860CE
:1036A00070BD00000010014000440040203802407E
:1036B000001401402DE9F84F674EDFF89891674FED
:1036C000DFF89CA10C46A6F10408002538B1291F9B
:1036D000012801D0022850D00846BDE8F88F606864
:1036E000FFF7AEFF94F92000FEF702FDA06A50B18B
:1036F0000168096839B190F91400FEF7F9FCA06A75
:103700000068FEF7F6F8606A50B10168096839B1DF
:1037100090F91400FEF7ECFC606A0068FEF7E9F827
:103720006068484503D1306820F010000DE0B842D1
:1037300006D1D8F8001021F40031C8F8001005E0D7
:10374000504503D1306820F020003060E06A0571F8
:10375000E06A4571E06A8571E06AC571E06A0572E8
:10376000E06A4572E06A8572206B80F82150E06A59
:10377000C17A21F00201C17269E0E06AC17ACA0728
:103780002AD0890763D40571E06A4571E06A8571C2
:10379000E06AC571E06A0572E06A4572E06A8572A6
:1037A000206B80F82150206B4583206BC561206B16
:1037B00080F82050E06AC560E06A0561E16A032094
:1037C000C872606848450AD1306840F01000306027
:1037D000306800F0100018E04FF0FF307DE7B8428D
:1037E0000AD1D8F8001041F40031C8F80010D8F818
:1037F000000000F4003008E0504507D1306840F088
:1038000020003060306800F02000009094F9200023
:10381000FEF75BFE94F92000FEF762FEA06A40B15D
:1038200090F91400FEF751FEA06A90F91400FEF71B
:1038300057FE606A40B190F91400FEF746FE606AD8
:1038400090F91400FEF74CFE6068FFF7F9FE0020C7
:1038500043E70000001001404438024000440040AB
:103860000014014030B4816A09680968496819B1D7
:10387000016B096800292CD14168CA6822F0100246
:10388000CA60C26A00210C46D268022A0BD1036BBF
:10389000DA69DC61012A04D0022A04D0032A05D1A6
:1038A00003E0012102E0022100E00421026B136821
:1038B0001361C26A54714268D36843F02003D36035
:1038C000C06A0268002A04D0002902D030BC084631
:1038D000104730BC70472DE9F04114460D460200F8
:1038E0004FF4806126D02DB3E06A4FF0FF36C37AE3
:1038F0005B074CD54079770001286ED06068C368BB
:1039000023F02003C360206B0560E36A0020187277
:10391000E36A5872E36AD871E36A9872236B9A601B
:10392000226B1061E36A01225A71E26AD268022AAC
:1039300004D008E06FF00400BDE8F081226BD2698A
:10394000012A00D10021A26A92B31268D060A26A53
:10395000126811616168C968CA0403D5490501D4B8
:103960004FF40060A16A09684861A16A096888612A
:10397000A06A0068FEF7BAF848B9206B61682B4668
:103980008268A06A091D0068FEF7ECF808B13046AD
:10399000D2E76068416941F0400141616068C168F7
:1039A00041F01001C160E06AC068022806D012E050
:1039B000FFE76068C16841F03001F3E7206BC1693F
:1039C00049B90221C161206B224629461A3000F014
:1039D00006F8801C01D00020AEE73846ACE72DE9A0
:1039E000F04714460E464FF4806568B166B1E16A4F
:1039F0004FF0FF39C97A490755D5216B6FF001089F
:103A000091F821200ABB03E06FF00400BDE8F087C5
:103A1000012281F82120216B0027C860206B4660BD
:103A2000206B4761E06AC068022811D1206BC16930
:103A300011B102290BD00BE0C261206B2246314646
:103A40001830FFF748FF801C02D14046DEE7002512
:103A5000606A80B30068C760606A0068056160687A
:103A6000C068C1040AD5400508D4616A4FF40060FB
:103A700009684861616A0968886105E0606A0068F0
:103A80004761606A00688761606A0068FEF72EF827
:103A900048B9206B62683346C168606A121D0068CD
:103AA000FEF760F808B14846B0E76068416941F048
:103AB0008001416105E0FFE76068C16841F0800175
:103AC000C1600020A2E710B54FF400334FF0FF3281
:103AD00010B1012817D109E0C86A006908B19842FD
:103AE00011D1886901228188006808E0C86A0069EC
:103AF00008B1984207D18869002281880068FEF7E2
:103B00004CFA002010BD104610BD416A09680968D2
:103B10004B68026B51680BB1002912D15161026BE5
:103B2000002182F821104168CA6842F04002CA6050
:103B3000C06AC168022904D00168002901D00120AF
:103B40000847704770B51C4615460B4606000CD05A
:103B50005BB155B1E06A4FF0FF32C17A490702D537
:103B6000C068022804D0104670BD6FF0040070BD1C
:103B7000216B03202246C86129461846FFF7ABFE99
:103B80000028F4D1224629463046BDE87040FFF7B0
:103B900026BF10B50446C06818B181880068FEF7DA
:103BA000B1F8206918B181880068FEF7ABF8606948
:103BB00018B181880068FEF7A5F8A06918B181885E
:103BC0000068FEF79FF8E06918B181880068FEF789
:103BD00099F8A06A002108B100680160606A08B124
:103BE00000680160E06AC172002010BD01480068F1
:103BF0007047000090CC00082DE9F0410F460446C4
:103C000016464FF400511A48FEF7C2F9194D88B113
:103C10000026EE70E87A00280AD0EE72E88A40F6B4
:103C2000A3311538884200D2A047EE826E72AE7280
:103C3000BDE8F0810124EC72E87800B9EC70E88A04
:103C400042F22831A0F6B830884203D8687A08B921
:103C5000B8476C72E88A4BF68031A0EBA10088422D
:103C6000E6D8A87A0028E3D1B047AC72E0E70000BC
:103C70000004024080030020ADF6783D04464FF07A
:103C8000000A4FF460710DF5BE60FDF730F84FF497
:103C90003F71BCA8FDF72BF80027204605F0E0FC9B
:103CA0004FF47A7004F08AF8BFA80DF2FD250126C2
:103CB000CDF8EC05FE4CE07A88B1FE490A2294F872
:103CC0000CC08979B1FBF2F3634508D0B1FBF2F186
:103CD0002173401EE0720121052006F001FFA07A49
:103CE000A346002878D0F4A04FF40079D0E9001062
:103CF000CDF8701BCDF8740B49460DF51760FCF735
:103D0000F6FFDFF8B0830A219BF80E3098F8060022
:103D10005C46B0FBF1F29A4206D0B0FBF1F0A07322
:103D20000121052006F0DCFE98F806000321B0FB17
:103D3000F1F2637B9A424FD0B0FBF1F06073A07A4E
:103D40004FF43F71401EC0B2A0728046BCA8FCF781
:103D5000CEFF4FF460710DF5BE60FCF7C8FF494619
:103D60000DF51760FCF7C3FF0DF537690DF517600A
:103D700019F8081006F0C4F958B312208DF8F002B3
:103D8000A17AA04619F8010006F03CFA0246BCAC44
:103D90000DF51763CAA1601CFCF7FAFB601CFCF769
:103DA000E2FEADF8EA054FF43C726846DDF8EC152A
:103DB000FCF749FFBCA890E80E000DF5BE6006F0C8
:103DC0004DFA0146D8F81C0042690DF5BE609047D7
:103DD00002E0607BC01C6073C3480021006804F0EF
:103DE00065F8102874D10C464FF43F71BCA8FCF75D
:103DF0007EFF4FF460710DF5BE60FCF778FF207810
:103E000001284AD16078C0B3012802D0022844D1E9
:103E10000DE0E07A102840D039283ED19BF80A10F6
:103E20000027002902D108218BF80A10A5E3AF482A
:103E3000006804F077F85FEA000813D18021AC48ED
:103E4000FCF733FFABA28021A948FCF7B5FBA848DB
:103E5000FCF789FE0146AD484269A54890470A2013
:103E600003F0ACFF892221464046FCF7A7FE207AEA
:103E7000AA2803D0FA2810D12BE00EE0A07A22283D
:103E80000BD1BB2188F80810022088F801004146B8
:103E90000022DBF8300004F015F8002FC6D04FF4F4
:103EA0003C726846DDF8EC15FCF7CDFEBCA890E846
:103EB0000E000DF5BE6006F0D1F90146DBF81C00DE
:103EC00042690DF5BE609047142003F077FF53E37D
:103ED00058E340210BA8FCF70AFF5746CDF81CA079
:103EE000CDF820A0CDF824A03E2204F117010BA8A4
:103EF000CDF828A0FCF762FE892221464046FCF757
:103F00005DFE022088F80100207C4146A1280FD1E7
:103F100098F809900846A9F1020140F8177FC9B244
:103F2000878008F1090003F0FFFB08EB0901C87165
:103F300000224146DBF8300003F0C4FF5FEA0009CD
:103F400014D080216A48FCF7B0FE4B4670A2802155
:103F50006748FCF731FB6648FCF705FE01466B48F5
:103F60004269634890470A2003F028FF0A2003F0C3
:103F700025FF80215E48FCF798FEE07906F092F973
:103F8000627FA1796379CDE9041003930692A0784A
:103F90002279E1788DE80700237C64A280215448CF
:103FA000FCF70AFB5248FCF7DEFD01465748426920
:103FB0004F4890470A2003F001FF0C208DF8F102D2
:103FC000E078A379627921798DE80F00A378E2790E
:103FD00063A10DF53C790DF2F220FCF7D9FAE179F5
:103FE0000D203D2960D008DC39290DD03A2938D080
:103FF0003B295AD03C2933D18DE23F2956D0402964
:1040000055D057292CD165E29DF83200400702D0E7
:104010008DF81C6001E08DF81C70681C07AB012254
:104020000D21009606F05AF80D3000F0FF080797B2
:104030009DF832000A9700F001008DF81C00012263
:104040000897099709EB080007AB11460096401C3A
:1040500006F044F84044C0B20797089709970A97BA
:104060000DE19DF83200400702D08DF81C6001E0A0
:104070008DF81C70681C07AB01220D21009606F01C
:104080002DF80D3000F0FF0807979DF832000190E1
:1040900000F001008DF81C00BA46089709970A97AE
:1040A00009EB080007AB69E083E187E0FAE01DE176
:1040B000C00200200A000020393A3B403C573D3FF7
:1040C0007B22706964223A222573222C2263696460
:1040D00073223A5B25735D2C22766572223A223177
:1040E0002E302E30227D00003C0300206003002093
:1040F0002C0400206D506F6F6C5F746872656144B2
:1041000070206E756C6C2E0A00000000F0CD000867
:1041100057325A206D712E302074784661696C5286
:1041200065733A253038582E0A0000004B50414341
:104130003C253032583E20726376206D6163253015
:1041400032582530325825303258253032582530F3
:1041500032582D5B25735D7B253032587D0A000077
:1041600025303258253032582530325825303258D3
:104170002530325825303258000000000122114607
:10418000401C009605F0AAFF4044C7B20198CDF844
:104190001CA0C0F340008DF81C00CDF828A009EB4E
:1041A0000700CDF820A0CDF824A007AB0122022102
:1041B000401C009605F092FF384457E09DF832000D
:1041C000400702D08DF81C6001E08DF81C70681C5F
:1041D00007AB01220D21009605F080FFBA46079734
:1041E000089709970A970D309DF8327000F0FF0884
:1041F00007F001008DF81C0009EB0800012207AB55
:104200001146401C009605F069FF404400F0FF088D
:10421000CDF81CA0C7F340008DF81C00CDF828A0F5
:1042200009EB0800CDF820A0CDF824A007AB0122AF
:104230000221401C009605F051FF404400F0FF08A9
:10424000CDF81CA0C7F380008DF81C00CDF828A085
:1042500009EB0800CDF820A0CDF824A007AB01227F
:104260000321401C009605F039FF4044C0B2CDF850
:104270001CA0CDF820A0CDF824A0CDF828A00D21B9
:104280008DF8F012ADF8EA05E0793D283FF407AE6D
:104290007EDC3928FAD03A28F8D03B28F6D03C28E2
:1042A00077D1FCE59DF83200012200F001008DF885
:1042B0001C00681C07AB1146009605F00FFF0D307F
:1042C00000F0FF08089707979DF85D008DF81E0025
:1042D0009DF85E008DF81F0004200A9700900222CE
:1042E000099709EB080007AB1321B0E69DF83200EF
:1042F00000F0070002F02AFE8DF81C00681C07ABD6
:1043000004220121009605F0E9FE0D3000F0FF08BF
:10431000089707979DF85D008DF81F000A97042005
:10432000009009EB0800099707AB02226821401CA6
:1043300005F0D4FE404400F0FF0807979DF83300D5
:104340000A97C0F340108DF81C0009EB080008978D
:10435000099707AB01226721401C009605F0BEFEBD
:10436000404400F0FF0807979DF857008DF81C00A7
:104370000A9709EB08000897099707AB0422652103
:10438000401C009605F0AAFE404400F0FF0801E042
:10439000EBE0F1E007979DF858000A978DF81C00B4
:1043A00004220897099709EB080007AB66210096DD
:1043B0004DE69DF83200400702D08DF81C6001E008
:1043C0008DF81C700122681C07AB1146009605F0A1
:1043D00085FE0D3000F0FF0807979DF832000A9720
:1043E00000F007008DF81F000420009009EB080082
:1043F0000897099707AB02220321401C05F06EFEC7
:10440000404400F0FF0807979DF833000A97C0F377
:1044100040108DF81C0009EB08000897099707ABBE
:1044200001226921401C009605F058FE404400F02E
:10443000FF089DF857000190079700F00F008DF8D6
:104440001C000A9709EB08000897099707AB04229C
:104450006521401C009605F041FE404400F0FF0835
:104460000198079700098DF81C000A9709EB0800CE
:104470000897099707AB04226621401C009605F0B7
:104480002DFE404400F0FF0807979DF8580001906A
:1044900000F00F008DF81C000A9709EB0800089740
:1044A000099707AB04226721401C009605F016FE11
:1044B000404400F0FF080198079700090A978DF81B
:1044C0001C0004220897099709EB080007AB682134
:1044D0000096BCE59DF83200012200F007008DF83F
:1044E0001C00681C07AB1146009605F0F7FD0D3067
:1044F00000F0FF0807979DF833000A97C0F34010BB
:104500008DF81C0001220897099709EB080007ABFA
:10451000652100969BE59DF83200400702D08DF89A
:104520001C6001E08DF81C700122681C07AB11466D
:10453000009605F0D3FD0D30C1B207970897099793
:104540000A97019198F81D00022200F07F008DF873
:104550001F000420009009EB010007AB1146401C2E
:1045600005F0BCFD0199084475E53F283FF499AE7C
:104570004028FBD05728F9D00027FF482146006883
:1045800003F0F8FC0021DBF8380003F08FFC102862
:104590007DD1CDF870194FF43F71BCA8FCF7A7FB93
:1045A0004FF460710DF5BE60FCF7A1FBDDF87019EA
:1045B0000878092858D2DFE800F0570558F957F86D
:1045C000F7F607001120B2E1EB48006803F0AAFCFF
:1045D000040014D18021E948FCF767FBAFF2EC42FC
:1045E0008021E648FBF7E8FFE448FCF7BCFA014607
:1045F000E3484269E14890470A2003F0DFFB267058
:10460000AA2020724FF0210884F80980A020A0720F
:104610003920E0721C2104F10D0003F085F82073AD
:1046200084F888803320E071667000222146DBF830
:10463000300003F047FC02221E21042002F024FB7C
:104640008021CE48FCF731FBCEA28021CB48FBF77E
:10465000B3FFCA48FCF787FA0146C9484269C74810
:1046600090470A2003F0AAFB6DE10C208DF8F102BF
:10467000C748CDF810A0CDF814A0CDF818A0CDF8FB
:104680001CA054460779C3788278417800E090E115
:104690008DE88E00DFF8FC82037898F80020AFF2F6
:1046A0004051BCAFB81CFBF773FF98F800100D2009
:1046B000392906D03A292DD03B2979D0402971D10A
:1046C000D4E0DFF8D49299F8000010B18DF81060B2
:1046D00001E08DF81040681C04AB01220D2100960A
:1046E00005F0FCFC0D3000F0FF08049405940694DE
:1046F000079499F80000012200F001008DF81000E5
:1047000007EB080004AB1146401C009605F0E6FCE0
:104710004044A0E0A048007810B18DF8106001E09E
:104720008DF81040681C04AB01220D21009605F0A5
:10473000D5FC0D3000F0FF089748049405940694CA
:1047400007940078012200F001008DF8100007EBBB
:104750000800A14604AB1146401C009605F0BEFCC3
:104760004044C4B28C48CDF81090CDF81490CDF8E8
:104770001890CDF81C90007804ABC0F340008DF881
:104780001000381901220221401C009605F0A6FCF9
:104790002044C0B2CDF81090CDF81490CDF8189008
:1047A000CDF81C905CE041E1C8E0BFE0C4E0FFE769
:1047B000DFF8E49199F8000010B18DF8106001E085
:1047C0008DF81040681C04AB01220D21009605F005
:1047D00085FC0D3000F0FF086F48049405940694A2
:1047E00007940078012200F001008DF8100007EB1B
:1047F0000800B94604AB1146401C009605F06EFC5B
:104800004044C7B264480494059406940794007821
:1048100004ABC0F340008DF8100009EB0700012243
:104820000221401C009605F059FC3844C7B25A4892
:10483000049405940694079400780122C0F3800044
:104840008DF8100009EB070004AB03210096401C13
:1048500005F044FC3844C0B20494059406940794CF
:104860000D218DF8F012ADF8EA056DE001A8019474
:1048700002F02CFF4848007800F0070002F066FBC9
:104880008DF81000681C04AB04220121009605F08D
:1048900025FC0D3000F0FF08404804940594069470
:1048A000079440788DF813000420009007EB08006F
:1048B000B94604AB04226821401C05F00FFC4044BB
:1048C000C7B2049405940694079402F0F9FE8DF89B
:1048D000100009EB070004AB01226721401C009681
:1048E00005F0FCFB3844C7B2069404949DF804001C
:1048F0008DF81000059409EB0700079404AB04221F
:104900006521401C009605F0E9FB3844C7B20694C7
:1049100004949DF8050005948DF810000422079476
:1049200009EB070004AB6621009690E71C208DF888
:10493000F002ADF8EAA507E00320F8E704208DF8BF
:10494000F002ADF8EAA5B7B14FF43C726846DDF865
:10495000EC15FCF778F9BCA890E80E000DF5BE60E8
:1049600005F07CFC0146DBF81C0042690DF5BE60D9
:104970009047142014E016E0600300202C0400206F
:10498000F0CD00087A624E776B206F70656E0A007A
:10499000CCB6000814000020D6030020DB03002062
:1049A00003F00CFA0027DDF87019DBF82C0003F097
:1049B000E1FA0021DBF8340003F078FA10287FF4E4
:1049C00079A90C464FF43F71BCA8FCF790F94FF45D
:1049D00060710DF5BE60FCF78AF98021EE48FCF7A6
:1049E00064F92378EDA28021EB48FBF7E5FDEA4866
:1049F000FCF7B9F80146F5484269E74890470A20B4
:104A000003F0DCF920781D287ED2DFE800F07D88F5
:104A100093957DC0F4F3C6CA197DF27DF1F07DEF68
:104A20007DC8EE7D7D7DED7D7D7DD00005208DF8FE
:104A3000F0029BF801008DF8F102ADF8EA6583E71A
:104A4000E34808AB07C883E807008DF814A094F882
:104A5000FA12082308AA601C03F0F6F8002853DDB8
:104A600004EB0008CDF818A008F10D0006A9CDF858
:104A70001CA004F07FFB002846D008F10B0005A91C
:104A800004F098FBD34800239DF8142006A9006881
:104A900006F018FA5FEA000820D00A208DF8F0022C
:104AA0009DF819009DF81C309DF81B209DF81A10E8
:104AB0008DE80F00BCAF9DF818309DF81420C6A1FA
:104AC000781CFBF765FD781CFCF74DF8ADF8EA059E
:104AD000CD484146006803F04DFA21E1052206A9C0
:104AE000CA48FCF714F800280ED10A208DF8F0020D
:104AF000C64841780779C37882788DE88E000378BC
:104B0000C348B5A1027800E0F7E0BCAF781CFBF722
:104B10003FFD781CFCF727F8ADF8EA0500E1BDA7DA
:104B20008DF8F0623A46C2A10DF2F120FBF730FD9C
:104B30003846EFE702201AE06178FF2006290FD2FD
:104B4000DFE801F0030507090B0D002008E0012054
:104B500006E0022004E0032002E0042000E005203B
:104B60008BF80500042807D08BF800A003208DF8EF
:104B7000F002ADF8EAA5D3E08BF8006002F0B8FDD2
:104B80000728F3D104F0C6FF05F048FFEEE7A94877
:104B9000017821F080010170C0E00027E4E21320D9
:104BA000E5E70121052005F09BFF0920DFE760789C
:104BB000029094F802904FF00008000601D58BF89F
:104BC0000F90029800F07F0003909BF80F1010FBED
:104BD00001F0C0B204900298400628D14FF4D87179
:104BE0009548FCF762F822E088E016E2ADE28DE13C
:104BF000AFE08DE0A4E292E2049808EB8802404422
:104C000000EB40018C4800EB410102EBC80020445E
:104C1000CDE90010001D491D04F0CCFADDE90010BB
:104C2000801D04F0A7FA08F1010000F0FF08C84554
:104C3000E2D30298000671D49BF80F200398D8465F
:104C400012FB0090C0B28BF8080081464FF4D87177
:104C50007A48FCF72AF809EB490042007649774880
:104C6000FBF7ACFF80214C48FCF71FF898F80830A0
:104C700073A280214848FBF79FFC4748FBF773FF6E
:104C8000014652484269444890470A2003F096F88A
:104C9000142003F093F898F8100070B388F810A06F
:104CA00080213D48FCF701F8634807AB90F8B92034
:104CB00090F8B8C090F8B78090F8B6100A9283E8E0
:104CC000021190F8B59090F8B43004A880E80C0276
:104CD00001A8CDF8009080E80211624A80212E4898
:104CE000FBF76AFC2C48FBF73EFF01463748426958
:104CF000294890470A2003F061F80FE005F036FCE0
:104D00004FF4D8714D48FBF7D0FF05F05FFC05E08C
:104D1000B4F8FA1211B1601C01F04EFC002F39D02A
:104D20004FF43C726846DDF8EC15FBF78CFFBCA82D
:104D300090E80E000DF5BE6005F090FA0146DBF834
:104D40001C0042690DF5BE609047142003F036F850
:104D500023E75746302123A8CDF8CCA0FBF7C7FFA7
:104D60001F9720972197782101A82297FBF7BFFF73
:104D70002F97309731973297002701AB1FAA3AA19E
:104D8000601CFBF787FD80210348FBF78EFF01A81D
:104D90001FAB79E0E8E100002C0400205B5455597A
:104DA000412057494649204442475D747579612046
:104DB000756172742064617461207263765B636DE7
:104DC000643A253032585D2E0A000000F0CD00080C
:104DD000C4B70008100300207B227375625F69640A
:104DE000223A222530325825303258253032582583
:104DF00030325825303258222C2268625F74696D37
:104E000065223A36307D000028030020CCB6000829
:104E1000140000207B2276223A22312E302E3022BE
:104E20002C226D223A302C22636170223A317D00AF
:104E300025730000C4020020641500201417002010
:104E400074757961206E6F64654C69737420726546
:104E5000636F7264207265616C65733A25642E0A13
:104E600000000000ECCE00087B22676964223A2231
:104E7000255B5E225D222C2263696473223A5B25E6
:104E80005B5E5D5D000000000090BBA28021C44815
:104E9000FBF792FBC248FBF766FE0146C148426938
:104EA000BF4890470A2002F089FF33AABEA11FA87D
:104EB000FBF7F0FC01A8FBF756FE801CC0B20F21E7
:104EC000B0FBF1F819E0C7EB071101A8014407EBAB
:104ED000470223A800EB42008146491C01F0B0FEC6
:104EE0004946339802F0E4F802462FA800EB470049
:104EF000AEA1FBF74DFB7F1CFFB24745E3D32FA8C4
:104F000000EB48020E2102F801AC61E05746302167
:104F100023A8CDF8CCA0FBF7EAFE1F972097219796
:104F2000782101A82297FBF7E2FE2F97309731975F
:104F30003297002701AB1FAAAFF2D401601CFBF728
:104F4000A9FC80219648FBF7B0FE01A800901FAB9A
:104F500089A280219248FBF72FFB9148FBF703FEC3
:104F60000146904842698E4890470A2002F026FF89
:104F700033AA8DA11FA8FBF78DFC01A8FBF7F3FD59
:104F8000801CC0B20F21B0FBF1F819E0C7EB07118C
:104F900001A8014407EB470223A800EB4200814629
:104FA000491C01F04DFE4946339802F03FF9024694
:104FB0002FA800EB47007DA1FBF7EAFA7F1CFFB2A8
:104FC0004745E3D32FA800EB48020F2102F801ACBC
:104FD0008DF8F012BCAF009001AB1FAA74A1781C31
:104FE000FBF7D6FA781CFBF7BEFDADF8EA05802189
:104FF0006B48FBF75AFE7B1C77A280216848FBF7C1
:10500000DBFA6748FBF7AFFD014666484269644832
:1050100090470A2002F0D2FE82E6CDF864A0CDF8D7
:105020005CA0CDF860A0CDF850A0CDF854A0CDF88C
:1050300058A067784FF0000804F00EFB0090A11C08
:105040003A4614A8FBF7BAFD19AA57A114A87F1C69
:10505000FBF720FCE019401C1B90B4F8FA02C01BBF
:1050600080B21A90199802F00BF881460C2854D29D
:1050700000EB8001009801EBC90100EB81001C905E
:105080001C9908EB480001EB4007391D062217A8C0
:10509000FBF73DFDD0B3402104A8FBF728FE0C2010
:1050A0008DF81000B8797B7A3A7AF9798DE80F009B
:1050B0007B793A790DF11100AFF65C71FBF768FA74
:1050C000DDE91A210DF11D00FBF778FD1A980D306E
:1050D000C1B204A801F070FA80213148FBF7E5FD68
:1050E0004B4645A280212E48CDF80080FBF764FA9C
:1050F0002B48FBF738FD01462A484269284890476B
:105100000A2002F05BFE142002F058FE08F10100B4
:1051100000F0FF08B8F1080FB2D3142027E50120F2
:1051200005F01CFA06208DF8F0024148ADF8EAA51A
:10513000007800287FF4D1AC08208BF80A00EFE556
:10514000002005F00BFA072011E5607800283FF4F5
:10515000FFADA01C05F00AFE9BF8001000297FF4AB
:10516000F7AD8BF8006018E52146DBF8280002F067
:1051700001FFFEF79FBD00005B47524F5550204492
:1051800042475D64617473207263762C20676964A2
:105190003A25732C20636964733A25732E0A000044
:1051A0002C040020F0CD00082564000025642C00AC
:1051B0007B22676964223A222573222C2263696468
:1051C00073223A5B25735D2C2272657473223A5BFD
:1051D00025735D7D000000005B47524F5550204411
:1051E00042475D6461747320726573706F6E642CE6
:1051F0002025732E0A0000005B47524F5550204473
:1052000042475D67726F7570206374726C206578B9
:10521000637574652C2067726F75703A25642C2055
:10522000646576496E6465783A25642E0A0000004C
:105230001100002010B503460078012203E09C5CB9
:105240006040521CD2B28A42F9D310BD2DE9F04120
:10525000ADF6684D0C46064640F6F432574903A8B1
:10526000FBF7F1FC64210DF54060FBF740FD4FF4C6
:105270000065A540524F01240DF10C0864210DF585
:105280004060FBF734FD012C17D101F065F80028D0
:105290007ED080214B48FBF708FD23464AA280219F
:1052A0004848FBF789F94748FBF75DFC01467A69F6
:1052B000444890470A2002F081FD052C6AD0062C54
:1052C0006ED004EB041000EBC00108EB41010DF5BA
:1052D000406091F89820891CFBF770FC012C2AD9BA
:1052E00004EB041000EBC00108EB4100032290F82E
:1052F0002F11B0F830318DE80E0000F1990390F8CD
:1053000098200DF5406106F081F8002854D08021E6
:105310002C48FBF7CAFC23462BA280212948FBF727
:105320004BF92848FBF71FFC01467A69254890474E
:105330000A2002F043FD641CE4B20A2C9ED38021B3
:105340002048FBF7B2FC26A280211E48FBF734F967
:105350001C48FBF708FC01467A691A4890470A2066
:1053600002F02CFD0C210D2006F0B4F8002809D025
:105370000D21084606F0AEF8002803D00E210D20BE
:1053800006F0A8F80DF6684DBDE8F08100E001E0F8
:10539000002492E78DF8006C300A8DF8010C9FE72D
:1053A0008DF8005C280A8DF8010C280C8DF8020C91
:1053B000280E8DF8030C93E70024BCE720BD0008FD
:1053C000F0CD00082C0400207A624E776B63726582
:1053D000617420737465703A25642E0A0000000021
:1053E0007A624E776B637265617420646F6E652EAE
:1053F0000A000000F0B5ADF5297D07464FF427728D
:10540000214901A8FBF71FFC4FF47A7002F0D6FC8B
:1054100000F05AFA044680211C48FBF746FCBDF810
:105420009E02009023461AA280211848FBF7C4F878
:105430001648FBF798FB01461C4842691348904701
:105440000A2002F0BBFC1A4D002634B14EF6FF7064
:10545000844202D2687A0A2806D36E72288AE881CA
:105460000421FFF7F3FE05E0EC814FF0010017B1D6
:1054700000F094FA18B16E720DF5297DF0BD697ACD
:10548000491C6972F8E7000014C900082C040020C8
:105490007A6250616E696420635B253034585D2CFC
:1054A00020665B253034585D2E0A0000F0CD0008E0
:1054B000FC0200202DE9F05F06460A9FFE203070B6
:1054C0009A4690468B463C4600257770B01CFBF709
:1054D00075FB08F1020000F0FF0904E01BF805006D
:1054E00044406D1CEDB24545F8D306EB09003A4641
:1054F0005146FBF763FB09EB0700C2B2002004E052
:105500001AF800104C40401CC0B2B842F8D3B45452
:10551000521CD0B2BDE8F09F2DE9F84F06464B482B
:105520004FF00008DFF828B18068009086F800800E
:1055300047464146DBF8480002F0B8FC10287CD111
:105540000D46E9464FF0FF0A09EB470295F899101E
:105550000223284602F090FB040068D017B1012F07
:1055600065D13EE014F8020CFE282FD195F8990081
:10557000801EC1B2681CFFF75DFE95F89920691E78
:10558000515C884222D1A07A00B10120B070A0798C
:10559000E17900EB0120B080207AB071607AF0717F
:1055A0002079617900EB01203081E07AB072A17C32
:1055B00006F10C00F1728046FBF777FBA27C04F148
:1055C00013014046FBF7FAFA012021E04A4695F81C
:1055D00099100223284602F037FB05F800A0FF27A8
:1055E00025E014F8020CFE2816D195F89900801ECB
:1055F000C1B2681CFFF71EFE95F89920691E515C28
:10560000884209D1A078E17800EB01207080022067
:1056100030704FF001080AE009F1020295F8991084
:105620000223284602F010FB05F800A000277F1C8B
:10563000FFB2022F88D3294600E003E0DBF83400F4
:1056400002F098FC4046BDE8F88F0000D0B7000893
:10565000FC0200202DE9FF4FB5B0074674A0DDE93C
:1056600044650068329073A08B4600683390DDF883
:105670000CA19C2101A8FBF73AFB242128A8FBF7E9
:1056800036FB0020319007F0FF098DF8C4904FEAF7
:10569000172846982C468DF8C580B0B1002412E03A
:1056A000C4EBC40000EB400006EBC00707F19A0111
:1056B000022231A8FBF72BFA18B93846A821FBF7CC
:1056C000F4FA641CE4B2AC42EAD3AC420ED100243A
:1056D0000AE0C4EBC40000EB400006EBC00090F809
:1056E000A60018B1641CE4B2AC42F2D3AC427CD246
:1056F000C4EBC40000EB400006EBC0049921204637
:10570000FBF7D3FA0025C4F89A50C4F89E508DF8E0
:1057100004908DF8058037988DF806008DF807B055
:1057200038988DF8080007200D268DF80C008DF8AC
:105730000A608DF80B508DF80DA052460DF10E0049
:105740004299FBF73BFA0AF10A00C0B2009001ABA4
:10575000022232A92046FFF7ADFE84F89900469850
:1057600008B342988DF8A0908DF8A18050F80F1FD3
:10577000CDF8A2108088ADF8A6002898C4F89A0049
:105780002998C4F89E00082084F8A200052084F817
:10579000A600A4F1A80594F8992029462046FBF715
:1057A000B6F980B11CE08DF8A0508DF8A1B08DF84D
:1057B000A2600320009004F19A0028AB022233A9D2
:1057C000FFF778FEE0E794F8A220A4F10E0104F1BF
:1057D0009A00FBF79CF918B92846A821FBF765FA4F
:1057E000012039B0BDE8F08FFFE780211248FBF7B8
:1057F0005CFA12A280211048FAF7DEFE0E48FBF791
:10580000B2F90146134842690B4890470A2002F05A
:10581000D5FA42F270341048224601190D46FBF7C2
:10582000CDF921462846FBF740FA0020D9E70000D1
:1058300024010000448000002C0400203E3E3E6411
:10584000617461524D20726571512066756C6C2EC9
:105850000A000000F0CD0008B82D002030B59FB040
:10586000642102A8FBF743FA13A002ABD0E90010B1
:10587000CDE91B1012A01DAA00681D900020009009
:10588000BDF80000ADF804003220009006211BA8EE
:1058900005F068FE00280DD00A4B002102AA54181A
:1058A000C1F106051D44491CE47989B205F8014C93
:1058B0000629F4D31FB030BDFE01260601200000EA
:1058C00066060000B902002010B59EB000246421D5
:1058D00002A8FBF70CFA11A102ABD1E90001CDE956
:1058E0001B0110A01DAA00681D900F48062100682A
:1058F0000090BDF80000ADF804004FF4FA7000907D
:105900001BA805F02FFE28B19DF80F009DF8101080
:1059100040EA01241EB0204610BD0000FE0126060C
:105920000627000066060000D0B7000810B59EB03C
:10593000642102A8FBF7DBF914A002ABD0E9001048
:10594000CDE91B1013A01DAA00681D900020009037
:10595000BDF80000ADF804001E20009005211BA832
:1059600005F000FE00280ED09DF80E109DF80F20C7
:10597000094B41EA022143F6FF72B1FBF2F402FB4C
:105980001411491C19821EB010BD0000FE00210C2C
:105990002D000000610C0000FC02002030B5EDB0CD
:1059A0000446642150A8FBF7A2F94FF49A723649D5
:1059B00003A8FBF748F935A136A0D1E90021CDE9CC
:1059C000692100686B9034484FF47A754068009004
:1059D0001CB100F0C1FC04003BD0BDF80000ADF8E4
:1059E000040050AB6BAA052169A8009505F0BAFD2B
:1059F00004002ED09DF84601092801D0002428E09B
:105A00000C210D2005F066FD040022D00D21084672
:105A100005F060FD04001CD00E210D2005F05AFD9C
:105A2000040016D00021084605F0C6FA040010D084
:105A30009DF83B01BDF83C2103218DE807009DF84E
:105A4000A4200DF1A5030DF10E0103A805F0DEFC65
:105A5000044680211148FBF728F9234610A2802133
:105A60000E48FAF7A9FD0D48FBF77DF801461948E5
:105A700042690A4890470A2002F0A0F9284602F03D
:105A80009DF96DB0204630BDECBB0008FE0026003D
:105A90002600000045C00000D0B700082C040020FC
:105AA0005B546970735F756172745A6967625D3ABD
:105AB000205A696762656520696E737065637469F1
:105AC0006F6E20726573756C74206973203A20259F
:105AD000640A0000F0CD0008DAB005460026702107
